:100000000C940C030C9453030C9453030C9453035F
:100010000C9453030C9453030C9453030C94530308
:100020000C9453030C9453030C94B00E0C94820F55
:100030000C9453030C9453030C9453030C945303E8
:100040000C9453030C943F220C9453030C945303CD
:100050000C9453030C94211D0C9453030C945303E0
:100060000C9453030C9453030C9453030C945303B8
:100070000C9453030C9453030C9453030C945303A8
:100080000C9453030C9453030C9453030C94530398
:100090000C9453030C9453030C9453030C94530388
:1000A0000C9453030C9453030C945303EF0F11104F
:1000B000FF101110FF1056107910FF10CE10E11034
:1000C000B013B013DF13DF1315143514661566155E
:1000D00040146615F014F014571566156615601572
:1000E000FD14FD14FD14FD14FD14FD14FD14FD1488
:1000F000FD14FD14FD14FD14FD14FD14FD14FD1478
:100100000F151C1523152A1534156572676F646F5A
:10011000785F657A2F6B61736869726F2040203257
:1001200032393064312D6469727479000000F0A1B5
:100130002E002B00E000E100006800001E0014000B
:1001400004001D0001004D001F001A0016001B00D6
:10015000E1040068200008000700060035412C007B
:10016000210015000900190034004A002200170080
:100170000A00050000006564500001530000006F94
:100180000000E3004F000153000000670000E200A0
:1001900023001C000B00110000002961240018003E
:1001A0000D00100052004B0025000C000E00360020
:1001B00051002800260012000F0037002F002900F0
:1001C000270013003342386130004E002D0031000B
:1001D0002A00E500C100000000300100010001001C
:1001E000010000003A001E0220022202010001006C
:1001F0003B001F0221022302010001003C002F02EC
:1002000026022F00010001003D00300227023000CD
:10021000010001003E0031023500350200000100FE
:1002200001000100000001000000010001000100C8
:1002300000000100000001003F00520051002402B4
:10024000000001004000240021001E000100010008
:100250004100250022001F00370001004200260057
:100260002300200027000100430025022E02310058
:100270002E00010044004500007001000100000054
:100280000100010001000100010000000100010067
:10029000010001000100010001000100F200010065
:1002A000010001000100F000F1000100F400010074
:1002B00001000100F3000100F50001000100010050
:1002C0000100010000000100010001000000010028
:1002D0000000010001000100000001000000010019
:1002E0000100010001000100000001000100010007
:1002F00001000100A9000100010001000100AC00A3
:10030000AA00B600010001000100AB00A800010036
:1003100001000100010001000100010001000100D5
:10032000AE0001000100000000000000000000001D
:100330002A2B280000000000000000000000000040
:1003400000000029000000002C1E3420212224344B
:100350002627252E362D3738271E1F20212223241D
:1003600025263333362E37381F0405060708090AB9
:100370000B0C0D0E0F101112131415161718191A55
:100380001B1C1D2F3130232D350405060708090AD3
:100390000B0C0D0E0F101112131415161718191A35
:1003A0001B1C1D2F3130354C0000000000000000E8
:1003B000000000000000000000000000000000003D
:1003C0000000000000000000000101010101010027
:1003D0000101010100000000000000000000000019
:1003E0000000010001000101010101010101010101
:1003F00001010101010101010101010101010101ED
:1004000001010100000001010000000000000000E7
:1004100000000000000000000000000000000000DC
:100420000000000101010100160345007200670091
:100430006F0044006F007800200045005A00000063
:1004400016034500720067006F0044006F007800DB
:10045000200045005A0000000403090409026D0051
:10046000040100A0FA0904000001030101000921B0
:10047000110100012240000705810308000A090458
:1004800001000103010200092111010001224D00B8
:100490000705820308000A090402000103000000A6
:1004A0000921110100012236000705830308000A13
:1004B00009040300010300000009211101000122C9
:1004C000390007058403100001120110010000002B
:1004D00008EDFE071301000102000105010906A154
:1004E00001050719E029E715002501950875018127
:1004F00002050819012905950575019102950175F7
:1005000003910105071900297715002501957875D4
:10051000018102C005010980A101850216010026A2
:10052000B7001A01002AB700751095018100C005B7
:100530000C0901A1018503160100269C021A010085
:100540002A9C02751095018100C005010902A101D4
:100550000901A100050919012905150025019505C5
:100560007501810295017503810105010930093189
:100570001581257F95027508810609381581257F2B
:10058000950175088106050C0A38021581257F95AD
:100590000175088106C0C005010906A101050719FA
:1005A000E029E7150025019508750181029501757F
:1005B0000881010508190129059505750191029524
:1005C00001750391010507190029FF150026FF0099
:1005D000950675088100C0000000000000000000C2
:1005E0000000010204060A0F17202C3A4A5D7187A9
:1005F0009DB3C7DAE9F5FCFFFCF5E9DAC7B39D87DF
:10060000715D4A3A2C20170F0A060402010000000F
:10061000000000000000000011241FBECFEFDAE050
:10062000DEBFCDBF04B603FE27C0809101029091CA
:100630000202A0910302B09104028730904BA740C0
:10064000B04BD1F4109201021092020210920302F8
:100650001092040214BE84B7877F84BF0FB6F8944B
:10066000A89580916000886180936000109260007E
:100670000FBEE0E0FFE3099511E0A0E0B1E0E8E2A1
:10068000F8E402C005900D92A433B107D9F712E047
:10069000A4E3B1E001C01D92A130B107E1F70E94CF
:1006A000F50B0C9412240C9400001092B9008AE00F
:1006B0008093B800089594EA9093BC009091BC0098
:1006C00097FFFCCF9091B900987F983021F090313E
:1006D00011F081E008958093BB0084E88093BC0012
:1006E0008091BC0087FFFCCF8091B900887F883162
:1006F00011F0803471F780E0089584E98093BC00A4
:100700008091BC0084FDFCCF08958093BB0084E8F9
:100710008093BC008091BC0087FFFCCF9091B90012
:10072000987F81E0983209F480E0089584E880930E
:10073000BC008091BC0087FFFCCF8091BB00089576
:1007400080B38C7080BB81B3836F81BB089580912F
:100750000101811115C080E40E945B0380930101B7
:1007600081110CC082E10E948503809301018111F7
:1007700005C08FEF0E948503809301010E947D03D5
:1007800084B1807F84B985B1807F85B98AB1837F48
:100790008AB98BB1837F8BB93E98469808950E94A1
:1007A0007105809301010E94A7030E94A003A5E3A5
:1007B000B1E0E3E4F1E08EE08E0F11921D928E1312
:1007C000FCCF0C945B050E947105809301010E948F
:1007D000A7030E94A003A5E3B1E0E3E4F1E08EE00B
:1007E0008E0F11921D928E13FCCF0895BF92CF925F
:1007F000DF92EF92FF920F931F93CF93DF9380913D
:100800000101882379F0809134018F5F8093340156
:10081000811108C00E94710580930101811102C0FD
:100820000E94030505E311E0C0E0D0E0DD24D3948D
:1008300082E0C82EEE24E394F12CC730D10500F5F8
:1008400080910101811164C080E40E945B03809368
:100850000101811112C082E10E9485038093010190
:1008600081110BC0C7010C2E01C0880F0A94EAF752
:1008700080950E948503809301010E947D0348C0FA
:10088000CA30A1F028F4C83059F0C93061F005C071
:10089000CC3089F070F0CD3089F0209A289810C0C3
:1008A000219A29980DC0229A2A980AC0239A2B9837
:1008B00007C0529A01C0539A5B9802C03E9A46986C
:1008C00090EA9A95F1F79FB1799902C082E001C050
:1008D00080E091709D25982B7C9902C084E001C036
:1008E00080E0892B7D9902C038E001C030E0832B85
:1008F0007E9902C020E101C020E0822B9FB190953B
:10090000991F9927991F9295990F907E892B0FC057
:1009100080910101811149C080E40E945B038093B2
:100920000101882379F1B12C0E947D038B2DF80100
:100930009081981719F08083C09200010E94A7034C
:1009400021960F5F1F4FCE30D10509F076CF8091F1
:100950000001882361F1815080930001882339F0E0
:100960008FE99FE00197F1F700C0000020C0A3E4E9
:10097000B1E0E5E3F1E0CF01825F91919D938E13A9
:10098000FCCF15C083E10E94850380930101811192
:10099000CACF81E40E945B03809301018111C3CF20
:1009A0000E949603B82EB094BFCF80E0C0CF0E94C3
:1009B000010581E0DF91CF911F910F91FF90EF90A2
:1009C000DF90CF90BF900895E82FF0E0ED5BFE4FF1
:1009D0008081089508950F931F93CF93DF93C3E40D
:1009E000D1E010E00C2F025F899190E00E94451C3D
:1009F000180F0C13F9CF812FDF91CF911F910F9119
:100A000008950C94CE0556985E9825982D982698B2
:100A10002E9827982F988FEF90E0909389008093DD
:100A2000880090938B0080938A0090938D00809330
:100A30008C00259A2D9A2FEF80E792E0215080407C
:100A40009040E1F700C00000269A2E9A2FEF80E731
:100A500092E0215080409040E1F700C00000279ACA
:100A60002F9A2FEF80E792E0215080409040E1F7ED
:100A700000C0000025982D982FEF80E792E02150CC
:100A800080409040E1F700C0000026982E982FEF9C
:100A900080E792E0215080409040E1F700C00000E4
:100AA00027982F9856985E9825982D9826982E98D6
:100AB00027982F98089589EA8093800089E0809391
:100AC000810024982C983F988AB18F748AB96E98C7
:100AD000479A8BB1806B8BB9769A0E9403050C9470
:100AE000CD0580E2809301018091510181110EC0FA
:100AF0000E94550381E0809351012FEF83ED90E335
:100B0000215080409040E1F700C0000080E40E9446
:100B10005B038093010181112EC00E9485038093A5
:100B20000101811128C00E94850380930101811178
:100B300022C08FE30E9485038093010181111BC0B5
:100B40000E947D0380E40E945B0380930101811178
:100B500012C08CE00E9485038093010181110BC0BB
:100B60000E94850380930101811105C08FE30E94DB
:100B70008503809301010E947D0380910101089506
:100B8000611108C0FC018281882321F08AE091E094
:100B90000E94F50780E090E0089508956091C201F9
:100BA0007091C3018091C4019091C5010E94511CB4
:100BB00056985E9825982D9826982E9827982F98C5
:100BC000813019F0823021F00895259A2D9A0895E8
:100BD000269A2E9A089581E0089581E008950C9454
:100BE000ED050895282F882339F090E02A3010F47D
:100BF0004D9608950697089587E290E00895AF9284
:100C0000BF92DF92EF92FF920F931F93CF93DF93E8
:100C10008C01FC01C081D181CE010E94CA1ABE01A3
:100C20000E94A209EC01B8010E94EF05882309F493
:100C3000D1C1F8018281882309F4C6C08091620184
:100C4000811127C0C431F0E7DF0709F0BDC10E9460
:100C5000F10581E0809362010E94EB1C9093610199
:100C60008093600110925501109257011092560125
:100C7000109259011092580110925B0110925A0182
:100C800010925D0110925C0110925F0110925E0162
:100C9000A1C180916001909161010E94F71C883C84
:100CA000910570F480915501E82FF0E0EE0FFF1FE1
:100CB000EA5AFE4FD183C0838F5F809355018AC16A
:100CC000C13020E8D20708F451C0F801828188239E
:100CD00009F47EC05E01E894B7F880915401813038
:100CE00079F050F08230C1F482EE0E94541287E510
:100CF0000E94541287E50EC082EE0E9454120CC06E
:100D000080EE0E94541281EE0E94541288E10E94EB
:100D1000541288E10E941C138CE0E82EF12CC501CE
:100D20000E2C02C0969587950A94E2F78F700E9468
:100D3000F205D82E0E9454128D2D0E941C13F4E04F
:100D4000EF1AF1082CEFE2162FEFF20641F780912F
:100D50005401813029F010F0823041F482EE04C059
:100D600080EE0E941C1381EE0E941C13C43180E7A8
:100D7000D80768F4C23090E7D90708F046C0C1151B
:100D8000E0E7DE0771F0C130D047A1F10CC1C333F9
:100D900020E7D20709F4D8C0C433D04709F4EBC028
:100DA00002C1F8018281882309F402C10E94D11591
:100DB000FFEF24E38CE0F15020408040E1F700C0D9
:100DC00000000E94461D06C1C13080E8D80770F2BD
:100DD000C43120E7D20708F0B3C0C23080E7D8079B
:100DE000A0F4C11590E7D90709F4E2C0C130D0479B
:100DF00009F0D9C0F8018281882309F4D9C0809113
:100E0000DF0181608093DF01E5C0F80182818823E2
:100E100009F4CEC00E94A01D811102C00E94861D4F
:100E20000E94B31D90E09093F3018093F201C230D1
:100E3000F0E7DF0721F48091F20181607AC0C330CE
:100E400020E7D20721F48091F201826072C0C430A1
:100E500080E7D80721F48091F20184606AC0C53030
:100E600090E7D90719F48091F20127C0C630E0E776
:100E7000DE0721F48091F20180615BC0C730F0E7AA
:100E8000DF0721F48091F201806253C0C83020E76F
:100E9000D20721F48091F20180644BC0C93080E711
:100EA000D80721F48091F201806843C0CA3090E7EE
:100EB000D90729F48091F201846088603AC0CB3070
:100EC000E0E7DE0721F48091F2018E7F32C0CC3062
:100ED000F0E7DF0721F48091F2018D7F2AC0CD3049
:100EE00020E7D20721F48091F2018B7F22C0CE301F
:100EF00080E7D80719F48091F2011AC08091F201BD
:100F0000CF3090E7D90711F48F7E13C0C031E0E7EE
:100F1000DE0711F48F7D0DC0C131F0E7DF0711F45A
:100F20008F7B07C0C231D04711F48F7702C08B7F0F
:100F3000877F8093F2018091F2010E94B71D4AC021
:100F4000C333F0E7DF07A1F4F8018281882321F0A1
:100F50001092520182E016C080915201811106C0A8
:100F600086E20E94541286E20E941C1382E018C09E
:100F7000C433D047C1F4F8018281882331F0109244
:100F8000530180E20E946B1325C0809153018111AF
:100F900006C087E20E94541287E20E941C1380E27E
:100FA0000E94721317C081E0809352018093530115
:100FB000C801DF91CF911F910F91FF90EF90DF90CB
:100FC000BF90AF900C94EB05C130F0E8DF0708F05C
:100FD00081CECCCE80E0DF91CF911F910F91FF9019
:100FE000EF90DF90BF90AF9008950F931F93CF9332
:100FF0008C01F80124912223F9F030E0F901E85D39
:10100000FC4FC491F901E855FC4F2491222359F07B
:1010100081EE0E9454128C2F0E9454128C2F0E9439
:101020001C1381EE04C08C2F0E9454128C2F0E943E
:101030001C130F5F1F4FDDCFCF911F910F910895AC
:1010400026E0729FF001112444E5849FE00DF11D1C
:101050001124E60FF11DEE0FFF1FE05DFE4F85919D
:1010600094910E94B409811560E49607B0F581154A
:1010700070E3970708F0DEC0803E9105D8F4803C0D
:10108000910508F06CC0883A910578F4853A91058D
:1010900008F06BC08130910509F452C108F40FC10A
:1010A0008430910508F04CC10AC18B3B910508F4CE
:1010B00067C005C18F3F910509F048F4803F910555
:1010C00008F0ADC0883E910508F43AC1F8C081151A
:1010D00020E2920708F0A5C00895811543E5940722
:1010E00090F4811562E5960708F0C8C0811571E596
:1010F000970708F0BEC0811520E5920708F09DC053
:101100009F70906A0895811545E59407D8F481157C
:1011100064E5960708F0C8C0482F4695469570E2EA
:10112000479FA00111248370992721E030E0B90185
:1011300002C0660F771F8A95E2F7CB01842B952BAF
:101140009A680895811576E5970708F4B2C09C0166
:1011500030562115304108F0B2C09F70AEC0FC017E
:10116000EE0FFF1FE455F04062C0853A910509F487
:10117000A9C0863A910509F0A8C082E890E40895D4
:10118000883A910509F4A4C0893A910509F4A3C0ED
:101190008A3A910509F4A2C08B3A910509F4A1C0DD
:1011A0008C3A910509F4A0C08D3A910509F49FC0CD
:1011B000803B910509F49EC08E3A910509F49DC0CB
:1011C0008F3A910509F49CC0813B910509F49BC0BD
:1011D000823B910509F49AC0833B910509F499C0BB
:1011E000843B910509F498C0853B910509F497C0AB
:1011F000863B910509F496C0873B910509F495C09B
:10120000883B910509F494C0893B910509F493C08A
:101210008A3B910509F492C080E094E408959065BA
:101220000895FC01FF70EE0FFF1FE45DFE4F8591F6
:10123000949108959927906C0895482F437021E068
:1012400030E002C0220F331F4A95E2F73C68AC0140
:1012500064E0569547956A95E1F74370342B8F709B
:101260008695869560E2869FC0011124822B932B80
:101270000895982F8827816F906A0895482F469582
:10128000469570E2479FA00111248370992721E0C1
:1012900030E0B90102C0660F771F8A95E2F7CB01F3
:1012A000842B952B9C680895982F8827846F906ACB
:1012B00008958F719927982F88279062089580E06C
:1012C00090E0089581E890E4089583E890E408951B
:1012D00082EE94E4089589EE94E408958AEE94E40D
:1012E000089585EB94E4089586EB94E4089587EBE4
:1012F00094E408958CEC94E408958DEC94E40895BE
:1013000083E895E408958AE895E4089582E995E4F0
:10131000089584E995E4089581E296E4089583E2CE
:1013200096E4089584E296E4089585E296E40895AB
:1013300086E296E4089587E296E408958AE296E4C8
:101340000895089596E0799FF001112494E5899F0E
:10135000E00DF11D1124E60FF11DEE0FFF1FE05D02
:10136000FE4F8591949108958238910549F1B0F42A
:101370008133910509F458C048F48932910509F484
:101380004EC08A32910509F454C008958533910501
:1013900009F440C08933910599F00895833E910581
:1013A00029F138F4803E910591F0823E9105A1F03B
:1013B0000895863E9105F9F0873E910531F1089533
:1013C0002091F20120FD3AC021FD38C0089580919E
:1013D000F20180FD35C032C08091F20182FF32C03F
:1013E0008091F20184FD30C083EE39C08091F2011A
:1013F00082FD28C0F5CF8091F20183FF27C0809144
:10140000F20184FD21C087EE2AC08091F20183FDA4
:101410001DC0F5CF8091F20185FD1AC01BC08091DF
:10142000F20185FD17C014C08091F20186FD14C041
:1014300015C08091F20186FD11C00EC080EE0FC074
:1014400089E30DC082EE0BC080E009C086EE07C0C4
:1014500089E205C085E303C08AE201C081E390E030
:10146000089508950C94310A809173010895CF93E3
:10147000DF9300D01F92CDB7DEB79C018091F801B9
:10148000843019F593E099833B832A839093E90094
:101490008FEF9091E800815095FD06C095ED9A95EB
:1014A000F1F700008111F5CF8091E80085FF0DC0B4
:1014B00040E050E063E070E0CE0101960E94A00C95
:1014C0008091E8008E778093E8000F900F900F9046
:1014D000DF91CF910895CF93DF9300D01F92CDB7C6
:1014E000DEB72091F801243021F522E029839B8387
:1014F0008A8383E08093E9008FEF9091E800815028
:1015000095FD06C095ED9A95F1F700008111F5CF94
:101510008091E80085FF0DC040E050E063E070E09E
:10152000CE0101960E94A00C8091E8008E778093F6
:10153000E8000F900F900F90DF91CF9108952091C8
:10154000F8012430F1F422E02093E9002FEF3091EC
:10155000E800215035FD06C035ED3A95F1F7000061
:101560002111F5CF2091E80025FF0BC040E050E0AD
:1015700065E070E00E94A00C8091E8008E77809377
:10158000E8000895CF93DF93EC019091F801943037
:1015900009F046C080910C018823D9F080910D019B
:1015A0008823B9F09093E9008FEF9091E800815083
:1015B00095FD06C095E19A95F1F700008111F5CFF0
:1015C0008091E80085FF2CC040E050E060E170E0D1
:1015D00017C081E08093E9008FEF9091E80081507F
:1015E00095FD06C095ED9A95F1F700008111F5CFB4
:1015F0008091E80085FF14C040E050E068E070E0B2
:10160000CE010E94A00C8091E8008E778093E800C4
:1016100080E1FE01A3E6B1E001900D928A95E1F729
:10162000DF91CF9108958091F701811109C00E9447
:10163000350E0E94920E8091E20084608093E20059
:1016400008951092F701089508950C942C220E9499
:10165000DC1C0E9432220E9438110C94320A42E0B3
:1016600061EC81E00E94AF0D42E061EC82E00E94FB
:10167000AF0D42E061EC83E00E94AF0D42E161EC0E
:1016800084E00C94AF0D8091FA01833009F455C0C9
:1016900030F4813071F0823009F48EC008958A30C0
:1016A00009F47AC08B3009F460C0893009F09CC01D
:1016B00020C08091F901813A09F096C08091E8003C
:1016C000877F8093E8008091FD019091FE01892B36
:1016D00021F460E183E691E003C060E080E090E007
:1016E00070E00E94EB0C8091E8008B778093E8001B
:1016F00008958091F901813209F076C08091FD0151
:101700009091FE01009719F0039709F06DC0809148
:10171000E800877F8093E8008091E80082FD05C0A3
:101720008091F8018111F8CF5FC08091F100809322
:1017300073018091E8008B7753C08091F901813A61
:1017400009F052C08091FD019091FE01892B09F0B2
:101750004BC08091E800877F8093E8008091E8008B
:1017600080FFFCCF80910C0136C08091F90181325D
:10177000D9F58091FD019091FE01892BA9F5809109
:10178000E800877F8093E8000E94E40D8091FB01D0
:1017900080930C010C94D1158091F901813221F5CF
:1017A0008091E800877F8093E8000E94E40D80919B
:1017B000FC018093740108958091F901813AA1F4AC
:1017C0008091E800877F8093E8008091E80080FFA7
:1017D000FCCF809174018093F1008091E8008E77B6
:1017E0008093E8000C94E40D089584B7877F84BF4C
:1017F0000FB6F894A895809160008861809360008E
:10180000109260000FBE80E880936100109261002A
:101810000E9487110E94350E0E94920E8091E20074
:1018200084608093E20078940E9418110E948911CC
:1018300082E091E00E9433110E941A228091F80107
:10184000853069F40E94A11C8091F6018823B1F3D0
:101850000E94CE1C882391F30E948A0CEFCF0E9435
:101860008F11ECCF292F332723303105C9F064F4D1
:101870002130310581F02230310509F043C08DE679
:1018800090E02CE534E042C021323105F1F0223203
:10189000310541F137C082E190E029EC34E036C0F7
:1018A00099278130910541F08230910541F0892BD3
:1018B00049F5E8E5F4E005C0E0E4F4E002C0E8E260
:1018C000F4E0849190E09F0121C06430D8F4E62FC9
:1018D000F0E0EE0FFF1FEE5DFE4F2081318189E0C9
:1018E00090E014C0643070F470E0FB01EE0FFF1F55
:1018F000E65EFE4F20813181FB01EA5EFE4F808172
:1019000090E004C080E090E020E030E0FA01318314
:101910002083089580E189BD82E189BD09B400FE7C
:10192000FDCF8091D8008F7D8093D8008091E0001A
:1019300082608093E0008091E00081FDFCCF0895FB
:10194000CF92DF92EF92FF920F931F93CF93DF938B
:10195000EC018B016A010E94030E811133C0C11496
:10196000D10439F0F60180819181081B190BC80F51
:10197000D91FE12CF12C0115110519F18091E80016
:1019800085FD16C08091E8008E778093E800C11431
:10199000D10449F0F60180819181E80EF91EF182AF
:1019A000E08285E00FC00E94030E882321F30AC065
:1019B00089918093F10001501109FFEFEF1AFF0A9E
:1019C000DACF80E0DF91CF911F910F91FF90EF90E0
:1019D000DF90CF9008952091FF01309100022617EB
:1019E000370748F06115710539F42091E8002E772A
:1019F0002093E80001C0B90140E061157105A9F12B
:101A00002091F801222309F443C0253009F442C093
:101A10002091E80023FD40C02091E80022FD32C063
:101A20002091E80020FFE9CF4091F3002091F200DF
:101A300030E0342BFC01CF016115710559F02830DD
:101A4000310540F481918093F100615071092F5F5D
:101A50003F4FF1CF41E02830310509F040E02091BF
:101A6000E8002E772093E800C8CF4111C9CF0AC003
:101A70008091F801882361F0853061F08091E80061
:101A800083FD0AC08091E80082FFF2CF80E00895D4
:101A900082E0089583E0089581E008952091FF0198
:101AA000309100022617370748F06115710539F4A7
:101AB0002091E8002E772093E80001C0B901FC01D5
:101AC00020E06115710591F18091F801882309F4F6
:101AD00040C0853009F43FC08091E80083FD3DC0DF
:101AE0008091E80082FD2FC08091E80080FFE9CF5F
:101AF0002091F3008091F20090E0922B6115710526
:101B000059F08830910540F424912093F1003196EA
:101B1000615071090196F2CF21E0089709F020E0A9
:101B20008091E8008E778093E800CBCF2111CCCF55
:101B30000AC08091F801882361F0853061F08091BE
:101B4000E80083FD0AC08091E80082FFF2CF80E0C8
:101B5000089582E0089583E0089581E00895982F24
:101B6000973058F59093E900981739F07091EC0090
:101B70002091ED005091F00003C0242F762F50E00B
:101B800021FF19C03091EB003E7F3093EB00309184
:101B9000ED003D7F3093ED003091EB0031603093EC
:101BA000EB007093EC002093ED005093F000209137
:101BB000EE0027FF07C09F5FD3CF8F708093E900AF
:101BC00081E0089580E008958091F90187FF11C0B8
:101BD0008091E80082FD05C08091F8018111F8CF65
:101BE00011C08091E8008B770BC08091F8018823A9
:101BF00049F08091E80080FFF8CF8091E8008E776F
:101C00008093E80008952091E4003091E50095E686
:101C10004091EC00842F817040FF22C08091E80049
:101C200080FD1CC08091F801882391F0853091F0EF
:101C30008091EB0085FD10C04091E4005091E500DB
:101C40004217530729F39A01915011F784E0089540
:101C500082E0089583E0089581E0089580E008958A
:101C60004091E80042FFDECF08950E94A30E0E943B
:101C7000AB0EE0EEF0E0808181608083E8EDF0E083
:101C800080818F77808319BCA7EDB0E08C918E7F27
:101C90008C9380818F7E80831092F70108950F933B
:101CA0001F93CF93DF930E94A30E0E94AB0EC8ED4B
:101CB000D0E088818F778883888180688883888155
:101CC0008F7D888319BC1092F8011092F401109254
:101CD000F6011092F50100EE10E0F80180818B7F93
:101CE000808388818160888342E060E080E00E9498
:101CF000AF0DE1EEF0E080818E7F8083E2EEF0E0D8
:101D0000808181608083808188608083F801808108
:101D10008E7F8083888180618883DF91CF911F913E
:101D20000F910895E8EDF0E080818F7E8083E7EDEC
:101D3000F0E080818160808384E082BF81E08093D5
:101D4000F7010C944F0EE8EDF0E080818E7F8083E8
:101D50001092E20008951092DA001092E1000895C6
:101D60001F920F920FB60F9211242F933F934F9310
:101D70005F936F937F938F939F93AF93BF93EF93F3
:101D8000FF938091E10082FF0BC08091E20082FF0F
:101D900007C08091E1008B7F8093E1000E941711C2
:101DA0008091DA0080FF1FC08091D80080FF1BC0A7
:101DB0008091DA008E7F8093DA008091D90080FFD5
:101DC0000DC080E189BD82E189BD09B400FEFDCF6F
:101DD00081E08093F8010E94130B05C019BC10929A
:101DE000F8010E94210B8091E10080FF19C08091D1
:101DF000E20080FF15C08091E2008E7F8093E200B8
:101E00008091E20080618093E2008091D80080623E
:101E10008093D80019BC85E08093F8010E94250BBF
:101E20008091E10084FF30C08091E20084FF2CC0EB
:101E300080E189BD82E189BD09B400FEFDCF8091BA
:101E4000D8008F7D8093D8008091E1008F7E8093B1
:101E5000E1008091E2008F7E8093E2008091E200B9
:101E600081608093E2008091F401882311F084E086
:101E700007C08091E30087FD02C081E001C083E0DC
:101E80008093F8010E94270B8091E10083FF29C015
:101E90008091E20083FF25C08091E100877F8093DD
:101EA000E10082E08093F8011092F4018091E1005A
:101EB0008E7F8093E1008091E2008E7F8093E2002C
:101EC0008091E20080618093E20042E060E080E087
:101ED0000E94AF0D8091F00088608093F0000E9416
:101EE000240BFF91EF91BF91AF919F918F917F91C3
:101EF0006F915F914F913F912F910F900FBE0F9077
:101F00001F9018951F920F920FB60F9211242F93C6
:101F10003F934F935F936F937F938F939F93AF9371
:101F2000BF93CF93DF93EF93FF93C091E900CF70FE
:101F30008091EC00D82FD17080FDD0E81092E9009C
:101F40008091F000877F8093F00078940E94C60F04
:101F50001092E9008091F00088608093F000CD2B12
:101F6000CF70C093E900FF91EF91DF91CF91BF91C6
:101F7000AF919F918F917F916F915F914F913F9121
:101F80002F910F900FBE0F901F9018951F93CF9316
:101F9000DF93CDB7DEB7AA970FB6F894DEBF0FBEBA
:101FA000CDBFE9EFF1E088E08E0F9091F1009193C1
:101FB0008E13FBCF0E94430B8091E80083FF1FC16B
:101FC0008091F9019091FA01492F50E04A30510572
:101FD00008F015C1FA01EA5AFF4F0C94C323803868
:101FE00081F0823809F00BC18091FD018F708093E0
:101FF000E9008091EB0085FB882780F91092E900C9
:1020000006C08091F5019091F60191118260909146
:10201000E800977F9093E8008093F1001092F10020
:10202000C8C0282F2D7F09F0EAC0882319F082301C
:1020300061F0E5C08091FB01813009F0E0C0933090
:1020400009F080E08093F6012BC08091FB018111A3
:1020500027C08091FD018F7009F4D1C08093E90001
:102060002091EB0020FF1CC0933021F48091EB0005
:10207000806214C09091EB0090619093EB0021E09E
:1020800030E0A90102C0440F551F8A95E2F7409342
:10209000EA001092EA008091EB0088608093EB00E8
:1020A0001092E9008091E800877F86C08111A7C067
:1020B0001091FB011F778091E3008078812B809342
:1020C000E3008091E800877F8093E8000E94E40DA0
:1020D0008091E80080FFFCCF8091E30080688093CE
:1020E000E300111102C082E001C083E08093F80197
:1020F00086C08058823008F082C08091FB019091A8
:10210000FC018C3D53E0950779F583E08A838AE2F0
:1021100089834FB7F894DE01139620E03EE051E248
:10212000E32FF0E050935700E49120FF03C0E295C5
:10213000EF703F5FEF708E2F90E0EA3010F0C7969F
:1021400001C0C0968D939D932F5F243149F74FBFF7
:102150008091E800877F8093E8006AE270E0CE011A
:1021600001960E94EB0C14C0AE014F5F5F4F60916F
:10217000FD010E94320CBC01892B09F440C09091F2
:10218000E800977F9093E80089819A810E944E0D24
:102190008091E8008B778093E80031C0803879F532
:1021A0008091E800877F8093E8008091F40180931C
:1021B000F1008091E8008E778093E8000E94E40DA2
:1021C0001EC081111CC09091FB019230C0F480911F
:1021D000E800877F8093E8009093F4010E94E40D6B
:1021E0008091F401811106C08091E30087FD02C057
:1021F00081E001C084E08093F8010E942F0B809160
:10220000E80083FF0AC08091E800877F8093E800A0
:102210008091EB0080628093EB00AA960FB6F89451
:10222000DEBF0FBECDBFDF91CF911F9108950895FE
:10223000CF938091F8018823A1F0C091E900CF707D
:102240009091EC00892F817090FD80E8C82B10924E
:10225000E9008091E80083FD0E94C60FCF70C09313
:10226000E900CF91089590937A01809379010895C0
:10227000E0917901F0917A01309721F00190F0819D
:10228000E02D099480E00895E0917901F0917A01C0
:10229000309721F00280F381E02D09940895E091B8
:1022A0007901F0917A01309721F00480F581E02DD9
:1022B000099408952091770130917801821793074E
:1022C00071F09093780180937701E0917901F0911A
:1022D0007A01309721F00680F781E02D0994089566
:1022E00020917501309176018217930771F09093D8
:1022F000760180937501E0917901F0917A01309730
:1023000021F00084F185E02D0994089508950C943E
:1023100086110E94E21C0E94CF030C94681D9F92BC
:10232000AF92BF92CF92DF92EF92FF920F931F93E3
:10233000CF93DF9300D000D000D0CDB7DEB70E949E
:10234000F6030DE010E0AA24A394B12C902E802F68
:102350000E94E404980124583E4F6901F901F0807D
:10236000F826A1F40150110988F78FEF89838A8339
:102370001B820E94EB1C8160782F9D838C83498196
:102380005A816B818D810E9426122FC09091DF01AE
:1023900091FF04C08E830E94EA048E8125E030E024
:1023A000A501022E01C0440F0A94EAF7E42E4F2142
:1023B000C1F029839A828E2191E009F490E09B83F9
:1023C0000E94EB1C8160782F9D838C8349815A8108
:1023D0006B818D810E942612F6018081E826E082C1
:1023E00004C021503109E0F6BDCF0E94361F109184
:1023F0007B010E9438111817B9F00E9438118093A0
:102400007B0126960FB6F894DEBF0FBECDBFDF91DD
:10241000CF911F910F91FF90EF90DF90CF90BF90E1
:10242000AF909F900C94320A26960FB6F894DEBFB8
:102430000FBECDBFDF91CF911F910F91FF90EF9015
:10244000DF90CF90BF90AF909F900895CF93DF9390
:10245000CDB7DEB72B970FB6F894DEBF0FBECDBF5A
:102460004F83588769877A878B87DE01119686E0CC
:10247000FD0111928A95E9F785E0FE0137960190FA
:102480000D928A95E1F749815A816B817C818D811A
:102490009E810E946F182B960FB6F894DEBF0FBE78
:1024A000CDBFDF91CF910895CF93882309F4C2C0A7
:1024B000C82F823859F40E94381181FDBBC089E3CE
:1024C0000E94491B0E94161C89E30CC0833879F4D2
:1024D0000E94381180FDAEC083E50E94491B0E9416
:1024E000161C83E50E948B1BCF910C94161C84381C
:1024F00059F40E94381182FD9DC087E40E94491B57
:102500000E94161C87E4EECF8CEF8C0F813A48F4C2
:102510008C2F0E94802181118DC08C2F0E94491B1D
:10252000E3CF80E28C0F883048F4C77081E001C0AF
:10253000880FCA95EAF70E94CF1BD6CF8BE58C0F88
:10254000833078F4C53A29F0C63A31F083E890E058
:1025500005C081E890E002C082E890E0CF910C9441
:102560005A1188E58C0F833108F064C0C83A39F1FC
:10257000C93A41F1CA3A49F1CB3A51F1CC3A59F151
:10258000CD3A61F1C03B69F1CE3A71F1CF3A79F1C0
:10259000C13B81F1C23B89F1C33B91F1C43B99F14D
:1025A000C53BA1F1C63BA9F1C73BB1F1C83BB9F1AD
:1025B000C93BC1F1CA3BC9F180E090E038C082EE6E
:1025C00090E035C089EE90E032C08AEE90E02FC0F6
:1025D00085EB90E02CC086EB90E029C087EB90E083
:1025E00026C08CEC90E023C08DEC90E020C083E806
:1025F00091E01DC08AE891E01AC082E991E017C01D
:1026000084E991E014C081E292E011C083E292E09B
:102610000EC084E292E00BC085E292E008C086E240
:1026200092E005C087E292E002C08AE292E0CF9198
:102630000C947011CF910895882309F44BC082380F
:1026400059F40E94381181FF45C089E30E94491B5B
:102650000E94161C89E30CC0833871F40E94381163
:1026600080FF38C083E50E94491B0E94161C83E549
:102670000E948B1B0C94161C843859F40E9438114C
:1026800082FF28C087E40E94491B0E94161C87E431
:10269000EFCF9CEF980F913A58F390E2980F983053
:1026A00050F4877091E001C0990F8A95EAF7892F5D
:1026B0000E94D51BDFCF9BE5980F933020F480E07C
:1026C00090E00C945A11885A833120F480E090E015
:1026D0000C9470110895882321F00E94CF1B0C9454
:1026E000161C0895882321F00E94D51B0C94161CFB
:1026F00008957F928F929F92AF92BF92CF92DF9276
:10270000EF92FF920F931F93CF93DF931F92CDB75A
:10271000DEB77C01C62E772EFC01058102950F7075
:10272000128111110E94EC1B0E94421B882379F038
:10273000112369F080E28C0D883048F082E00E941D
:102740002B1B0E94421B91E0D82ED92601C0D12C10
:10275000E72DE295EF70F0E0E05AFF4F0C94C323B1
:10276000872D807F072D0F70882311F00295007F41
:10277000112389F0002309F490C180E28C0D883088
:1027800020F4802F0E94CF1B03C0802F0E94DF1BEC
:102790000E94161C82C18C2D0E941C13002309F478
:1027A00095C180E28C0D883020F4802F0E94D51BCB
:1027B00003C0802F0E94E51B0E94161C87C1972D25
:1027C000907F872D8F70903211F08295807FCC2082
:1027D00021F0F1E0CF16B1F01EC0112349F0002323
:1027E00009F414C1013009F011C10E94FF1B6EC130
:1027F000002319F0013009F469C189830E94021C89
:1028000089810AC1112321F0023008F05FC1FEC0A6
:1028100001115CC101C1112321F0002309F4F6C0AC
:102820003CC1002309F4F8C03EC1872D86958695EA
:10283000837090E0009719F0019761F047C1112370
:1028400021F08C2D972D937002C080E090E00E94C3
:102850005A113CC1112321F08C2D972D937002C089
:1028600080E090E00E94701131C18C2D112319F08D
:102870000E943E1E02C00E94A61E0E942B1F26C15F
:10288000872D837009F052C0111120C18C2D8295C3
:1028900086958770880F880F9C2D9F70892E912CAC
:1028A000A12CB12C082E04C0880C991CAA1CBB1C9E
:1028B0000A94D2F7C4FE14C00FE010E020E030E02C
:1028C000B901A80104C0440F551F661F771F8A95E0
:1028D000D2F7CB01BA01609570958095909503C0B1
:1028E00060E070E0CB01272D26952695237030E01F
:1028F0002230310569F02330310589F068297929C2
:102900008A299B292130310571F00E94B719DEC058
:10291000682979298A299B290E94D319D7C00E9446
:10292000B719C501B4010E949B19D0C0112319F039
:10293000872D817001C08695882309F4C7C08C2D2E
:10294000829586958770880F880F9C2D9F70892EA1
:10295000912CA12CB12C082E04C0880C991CAA1C07
:10296000BB1C0A94D2F7C4FE14C00FE010E020E0B4
:1029700030E0B901A80104C0440F551F661F771F3E
:102980008A95D2F7CB01BA016095709580959095A4
:1029900003C060E070E0CB01272D269526952370BB
:1029A000422F50E04230510569F04330510589F023
:1029B000682979298A299B294130510571F00E94A3
:1029C000911A84C0682979298A299B290E94AD1A05
:1029D0007DC00E94911AC501B4010E94751A76C08B
:1029E0008C2D90E0FC01E05EF109E531F10508F085
:1029F00050C0E059FF4F0C94C3230C2D0F70872D4E
:102A00008F71112331F00E940E1A802F0E946B13D8
:102A10005DC00E942F1A802F0E94721357C011238D
:102A200039F0011153C0872D8F710E94541A4EC086
:102A3000023008F04BC0F7CF112339F0872D8F718A
:102A40000E940E1A43C01123C9F3872D8F710E9473
:102A50002F1A3CC0112329F0872D8F710E94F9197C
:102A600035C00E94EF1932C0112351F0172D1F718C
:102A7000812F0E940E1A63E0812F0E94221B26C024
:102A800081E00E942B1B023008F182E00E942B1B88
:102A90001DC0112331F0002389F28C2D0E945412A5
:102AA00015C0002391F28C2D0E941C130FC0472DDE
:102AB0004F706C2DC7010E94C0050E94131906C0FB
:102AC000472D4F706C2DC7010E94A109DD20F9F040
:102AD0000E941E1B80FD1BC0F70112820E94181B62
:102AE0000E940E1AC7010E9496150E94181B0F9093
:102AF000DF91CF911F910F91FF90EF90DF90CF90DA
:102B0000BF90AF909F908F907F900C942F1A0F9052
:102B1000DF91CF911F910F91FF90EF90DF90CF90B9
:102B2000BF90AF909F908F907F9008950F931F93C9
:102B3000CF93DF93EC01888199812B813C81232BFA
:102B4000B9F09F3F11F48F3F99F0CE010E94FF052D
:102B5000882371F0688179818A810E94141B8C011D
:102B60000E94C91A0E949019B801CE010E947913DF
:102B7000DF91CF911F910F9108950E94EC1B0E944D
:102B8000FC1B0E94C11B0E94161C0E94DC1F0E949D
:102B90002B1F80E090E00E945A1180E090E00C949E
:102BA00070110E94DC1B0C94BD150E94091B292F7B
:102BB00022952F7030E02C3031054CF42A3031054D
:102BC0006CF42250310922303105A8F407C02C30B2
:102BD000310569F02F30310551F00DC0803F69F0AB
:102BE00018F4803E40F409C0843F29F406C093FBEA
:102BF000882780F9089580E0089581E00895CF93B3
:102C0000DF9300D000D01F92CDB7DEB70F900F90AA
:102C10000F900F900F90DF91CF910895CF93DF9396
:102C200000D000D000D0CDB7DEB726960FB6F8940E
:102C3000DEBF0FBECDBFDF91CF9108951F93CF931D
:102C4000DF93C0918A0116E080918B01C81799F03B
:102C5000D0E01C9FF0011D9FF00D1124E457FE4FA2
:102C60004081518162817381848195810E940E1619
:102C70002196C770E9CFDF91CF911F9108954091C0
:102C8000BC015091BD016091BE017091BF01809166
:102C9000C0019091C1010C940E168091C1018295E2
:102CA0008F7009F054C08091BE01882309F44FC091
:102CB00080918A01A0918B016091BC017091BD014E
:102CC0004091BF015091C001B6E08A1709F43FC09E
:102CD00090E041155105C1F17F3F11F46F3FA1F123
:102CE000B89FF001B99FF00D1124E457FE4F2181E8
:102CF00072132AC02081621327C02281211124C0AF
:102D0000238134812417350710F421503109241B05
:102D1000350B283C3105C0F42091C1012F70206192
:102D20002093C10126E0289FF001299FF00D112476
:102D3000EF56FE4F80818F70806180838CEB91E035
:102D40000E9496150C941E1601968770BECF0895AA
:102D5000CF92DF92EF92FF920F931F93CF93DF9367
:102D6000CDB7DEB762970FB6F894DEBF0FBECDBF0A
:102D70008C0185E0F801DE011D9601900D928A9587
:102D8000E1F7D8014C9111965C91119712966C91D4
:102D900012971396CD90DC9014973091BC017091EE
:102DA000BD018091BF019091C001009709F46BC1F2
:102DB0007F3F19F43F3F09F466C1E090BE01EE2069
:102DC00009F4C0C02091C101C816D90628F0F60147
:102DD000E81BF90BCF0104C0809590958C0D9D1DCB
:102DE000FF24F394883C910578F0F12C207F09F0C2
:102DF000C6C07C2DD98AC88A89890E94FF158CEBB0
:102E000091E00E949615B1C0822F807F09F046C0E4
:102E1000751314C0341312C0611110C02F702061DB
:102E20002093C1010E943F168CEB91E00E94961501
:102E30008091C101D80115968C932EC0CD2819F12F
:102E40005F3F11F44F3FF9F0F62E61111CC08091E5
:102E50008A0120918B0136E0821709F45AC090E074
:102E6000389FF001399FF00D1124E457FE4F718116
:102E7000571306C07081471303C07281711103C0DC
:102E800001968770E9CFF62E662309F418C1809168
:102E9000C10181608093C101F12C11C1751308C07B
:102EA000341306C0611104C08091C101D801C3C0B0
:102EB0004D875E878D859E856A8B0E94D5156A89B0
:102EC0008823E1F16623D1F12091C101822F8295FF
:102ED0008F7090E0029774F08091BC019091BD01D9
:102EE00098878F831986DB86CA862C87CE01079642
:102EF0000E94961586E0F801ACEBB1E001900D92CE
:102F00008A95E1F70E944D160E943F16FF24F39424
:102F1000D6C04D875E878D859E850E94091B292F0F
:102F200022952F7030E0223031050CF0BCC09F702C
:102F300009F0B6C0805E883008F4C1C0C8010E94A4
:102F40009615E4CFC816D90608F453C0F601E81B5D
:102F5000F90BCF01883C910508F450C0F12C7C2D71
:102F6000D98AC88A89890E94FF15ECEBF1E086E0D6
:102F7000DF011D928A95E9F70E943F16A0C07513E4
:102F800014C0341312C0611110C08091C101F80146
:102F90008583C8010E94961586E0ECEBF1E0DF0125
:102FA0001D928A95E9F7FE2C8AC04D875E878D8534
:102FB0009E856A8B0E94D5156A89882309F4BECF45
:102FC000662309F4BBCF2091C101822F82958F70B7
:102FD00090E002970CF48ECF8091BC019091BD01DE
:102FE0009A8389831B82DD82CC822E83CE01019657
:102FF0007FCF809590958C0D9D1DACCFF62E6623CE
:1030000009F49CCF75132EC034132CC02091C1013C
:1030100020FD1FC0822F82958F70D9F0D8011596A0
:103020002C9315978F3049F08F5F982F9295907F52
:10303000822F8F70892B15968C93C8010E9496154C
:1030400086E0F801ACEBB1E001900D928A95E1F7D2
:1030500093CF86E0F801ACEBB1E001900D928A9538
:10306000E1F72DC04D875E878D859E850E94D51521
:10307000811140CF8091C10181608093C101C8015D
:103080000E9496151CC0662309F458CF4D875E87B1
:103090008D859E850E94D515882309F44FCF2ACFB0
:1030A000811148CF0CC0243031050CF047CF9F7000
:1030B00009F440CFF8019581907F09F03BCF8F2D27
:1030C00062960FB6F894DEBF0FBECDBFDF91CF91F1
:1030D0001F910F91FF90EF90DF90CF9008951F9375
:1030E000CF93DF93CDB7DEB72C970FB6F894DEBF42
:1030F0000FBECDBF4F83588769877A878B879C87A0
:10310000CE0107960E94A816882369F08F819885C2
:103110002A853B85232BF1F19F3F09F063C08F3F48
:1031200009F060C037C086E0FE013796DE011196D7
:1031300001900D928A95E1F76F817885EA85FB858C
:10314000309741F17F3F11F46F3F21F120918B01C6
:1031500030E0C90101968770992740918A0150E0BB
:103160008417950709F447C069837A83FD83EC834C
:1031700096E0929FD001939FB00D1124A457BE4FAB
:10318000FE01319601900D929A95E1F780938B01A3
:103190000E941E1616E080918A0190918B0189177A
:1031A000C1F1189FC001112484579E4F0E94A81698
:1031B000882379F1E0918A011E9FF0011124E457E0
:1031C000FE4F4081518162817381848195810E948B
:1031D0000E1680918A0190E001968770992780935E
:1031E0008A01D9CF4F81588569857A858B859C85E1
:1031F0000E940E16CFCF0E94D11510928B01109213
:103200008A01ECEBF1E086E0DF011D928A95E9F797
:10321000C1CF2C960FB6F894DEBF0FBECDBFDF91A5
:10322000CF911F910895EF92FF920F931F93CF9329
:10323000DF938C01892B09F46CC0F12CEE24E3940C
:10324000E8012196F8018491843740F4843008F035
:1032500051C0813081F0823019F15BC0853709F4AB
:1032600044C0A8F19CE7980F903708F052C08F77C0
:103270000E941C1341C00E5F1F4FFE01C49180E2EB
:103280008C0F883048F4C7708E2D01C0880FCA9506
:10329000EAF70E94EF1B14C08C2F0E9454122DC01D
:1032A0000E5F1F4FFE01C49180E28C0F883058F4EE
:1032B000C7708E2D01C0880FCA95EAF70E94F51BD2
:1032C0000E94161C1AC08C2F0E941C1316C00E5F81
:1032D0001F4FFE01C491CC2381F08FE99FE001973D
:1032E000F1F700C00000C150F6CF0E5F1F4FFE0186
:1032F000F49003C00E9454128E018F2D882309F48C
:103300009FCFEFE9FFE03197F1F700C00000815057
:10331000F5CFDF91CF911F910F91FF90EF9008951E
:1033200008956093C6017093C7018093C80190937C
:10333000C9010C94BD150F931F930091C601109104
:10334000C7012091C8013091C901DC01CB01802B5C
:10335000912BA22BB32B8093C6019093C701A0930E
:10336000C801B093C9011F910F910C94BD150F9323
:103370001F930091C6011091C7012091C80130919F
:10338000C901DC01CB0180239123A223B3238093C5
:10339000C6019093C701A093C801B093C9011F91C2
:1033A0000F910C94BD150F931F930091C6011091BE
:1033B000C7012091C8013091C901DC01CB018027F0
:1033C0009127A227B3278093C6019093C701A093AA
:1033D000C801B093C9011F910F910C94BD151092B3
:1033E000C2011092C3011092C4011092C5010C9445
:1033F000BD1541E050E060E070E004C0440F551F8F
:10340000661F771F8A95D2F74093C2015093C3017C
:103410006093C4017093C5010C94BD1541E050E068
:1034200060E070E004C0440F551F661F771F8A9547
:10343000D2F78091C2019091C301A091C401B091D3
:10344000C501482B592B6A2B7B2B4093C20150930B
:10345000C3016093C4017093C5010C94BD1541E094
:1034600050E060E070E004C0440F551F661F771FF6
:103470008A95D2F740955095609570958091C201DC
:103480009091C301A091C401B091C5014823592373
:103490006A237B234093C2015093C3016093C4010C
:1034A0007093C5010C94BD1541E050E060E070E000
:1034B00004C0440F551F661F771F8A95D2F780916D
:1034C000C2019091C301A091C401B091C5014827E8
:1034D00059276A277B274093C2015093C301609309
:1034E000C4017093C5010C94BD150F931F930091F7
:1034F000C2011091C3012091C4013091C501DC01CA
:10350000CB01802B912BA22BB32B8093C2019093E4
:10351000C301A093C401B093C5011F910F910C94F6
:10352000BD150F931F930091C2011091C30120910B
:10353000C4013091C501DC01CB0180239123A2237A
:10354000B3238093C2019093C301A093C401B093AD
:10355000C5011F910F910C94BD150F931F930091FE
:10356000C2011091C3012091C4013091C501DC0159
:10357000CB0180279127A227B3278093C201909384
:10358000C301A093C401B093C5011F910F910C9486
:10359000BD150895CF92DF92EF92FF920F931F9384
:1035A000CF93DF938C01C090C601D090C701E0900B
:1035B000C801F090C9018091C2019091C301A0910E
:1035C000C401B091C501C82AD92AEA2AFB2ACFE151
:1035D000D0E0D701C6010C2E04C0B695A7959795EB
:1035E00087950A94D2F780FF06C0B8018C2F0E94FD
:1035F0002008019721F4219760F780E001C08C2F0B
:10360000DF91CF911F910F91FF90EF90DF90CF90BE
:103610000895CF93DF93EC010E94CA1ABE010E9465
:103620002008DF91CF910895CB010E94091B0895D6
:103630008091CA0185958595859508958091CA01E7
:103640008770089598E0899F90011124262B20937C
:10365000CA010C940E1A2091CA018095822380938E
:10366000CA01982F977069F430E0482F552747FD1D
:1036700050952417350729F08595859585950C94E7
:103680002F1A08959091CA01977081E009F480E0A3
:10369000089590910C01992321F090910D019111C1
:1036A00009C020910E0130910F01F90132969FEF70
:1036B00040E01FC0982F9695969596959F3050F5AF
:1036C000E0910E01F0910F01E90FF11D877021E0EB
:1036D00030E0A90102C0440F551F8A95E2F7CA01E4
:1036E0009181892B818308959F3F39F04F5F4E3040
:1036F00041F051915813F8CF0DC05111F7CF942FCD
:10370000F5CF9F3F39F0F901E90FF11D97FDFA95CB
:1037100082830895089590910C01992321F090914E
:103720000D01911109C020910E0130910F01F90195
:103730003296205F3F4F1FC0982F9695969596958D
:103740009F30F0F4E0910E01F0910F01E90FF11DAF
:10375000877021E030E0A90102C0440F551F8A950F
:10376000E2F7CA018095918189238183089531967A
:10377000E217F30729F090819813F9CF1082F7CF61
:10378000089581E090E0E0910E01F0910F01E80FC3
:10379000F91F1082019680319105A9F70895909143
:1037A000DE01892B8093DE01089580959091DE01E2
:1037B00089238093DE0108951092DE01089590918F
:1037C000DD01892B8093DD01089580959091DD01C5
:1037D00089238093DD0108951092DD010895909171
:1037E000DC01892B8093DC01089580959091DC01A8
:1037F00089238093DC0108951092DC010895809361
:10380000CB0108951092CB01089580910E01909103
:103810000F01FC0131969C01205F3F4F80E09191A8
:1038200091118F5FE217F307D1F70895E0910E0130
:10383000F0910F018091DE018083E0910E01F09103
:103840000F0190818091DD01892B8083E0910E0131
:10385000F0910F0190818091DC01892B8083809110
:10386000CB01882361F0E0910E01F0910F0190816E
:10387000892B80830E94051C81111092CB018091BD
:103880000E0190910F010C94441120E0009739F043
:10389000AC0141505109842395232F5FF7CF822F2C
:1038A0000895CF92DF92EF92FF926C01EE24FF24F5
:1038B000C114D104E104F10421F0C701B60120E1F3
:1038C00001C020E0C72ED82EE92EFF24C114D10458
:1038D000E104F10419F0285FC701B6016B017C0116
:1038E00054E0F694E794D794C7945A95D1F7C1144D
:1038F000D104E104F10419F02C5FC701B6016B019A
:103900007C0142E0F694E794D794C7944A95D1F7A6
:10391000C114D104E104F10419F02E5FC701B6010E
:10392000DC01CB01B695A79597958795892B8A2BB6
:103930008B2B09F02F5F822FFF90EF90DF90CF90BD
:1039400008958091F801843039F11092E00120E46B
:1039500088E190E00FB6F894A895809360000FBEC0
:103960002093600080E00E94320A83B7817F8460E8
:1039700083BF83B7816083BF7894889583B78E7F38
:1039800083BF0FB6F894A8958091600088618093FA
:103990006000109260000FBE089508950E94E30336
:1039A0000E94F6030E94CD1C0E94EB0491E081115D
:1039B00001C090E0892F08950E94D1150E9438110E
:1039C0000C94320A82E084BD93E095BD9AEF97BDD6
:1039D00080936E0008952FB7F8948091E101909143
:1039E000E201A091E301B091E4012FBF0895CF92CD
:1039F000DF92EF92FF920F931F932FB7F8944091AD
:103A0000E1015091E2016091E3017091E4012FBF67
:103A10006A017B01EE24FF248C0120E030E0C01617
:103A2000D106E206F30610F4415051099A01281B11
:103A3000390BC9011F910F91FF90EF90DF90CF904C
:103A400008951F920F920FB60F9211248F939F9398
:103A5000AF93BF938091E1019091E201A091E301C6
:103A6000B091E4010196A11DB11D8093E1019093F5
:103A7000E201A093E301B093E401BF91AF919F9164
:103A80008F910F900FBE0F901F9018950E94350ECA
:103A9000F8942FEF87EA91E6215080409040E1F7BB
:103AA00000C0000087E090EBDC018093010290935E
:103AB0000202A0930302B09304029CE088E10FB6D7
:103AC000F894A895809360000FBE90936000FFCF9C
:103AD0000E94A01D811102C00E94861D0E94AB1D84
:103AE0008093DF010E94B31D90E09093F3018093D7
:103AF000F20187FB882780F980930D010E94AF1D9A
:103B0000682F70E080E090E00C9491196DEE7EEFEC
:103B100080E090E00E94FC2360E082E090E00E9460
:103B2000EB2360E083E090E00E94EB2360E084E020
:103B300090E00E94EB2360E085E090E00C94EB23A2
:103B400080E090E00E94E52321E08D3E9E4F09F049
:103B500020E0822F089582E090E00C94DD2383E042
:103B600090E00C94DD2384E090E00C94DD23682F3A
:103B700084E090E00C94EB238091E70180FF0BC080
:103B80006091130185E0689FB001112475956795D8
:103B9000759567952BC081FF09C06091130185E081
:103BA000689FB00111247595679520C082FF07C0FA
:103BB0006091130185E0689FB001112417C09091B6
:103BC000E8019923D1F060911201961788F72091AE
:103BD000130185E0289F90011124929FA001939FDB
:103BE000500D112470E0CA010E94AF2360387105A6
:103BF00040F46115710539F002C065E070E0862F70
:103C000008958FE7089581E008958091E70180FF8E
:103C100008C06091110170E075956795759567957D
:103C200021C081FF06C06091110170E07595679514
:103C300019C082FF04C06091110170E010C0909122
:103C4000E8019923C1F0609110019617A0F78091C7
:103C50001101899FC001112470E00E94AF236038D8
:103C6000710528F46115710521F0862F08958FE7FD
:103C7000089581E0089561E070E0F4CF803F21F481
:103C80000E94BC1D819504C0813F29F40E94BC1D87
:103C90008093EB010895823F21F40E94BC1D819521
:103CA00004C0833F29F40E94BC1D8093EA0108955B
:103CB000893F19F40E94051E05C08A3F31F40E9415
:103CC000051E81958093EC0108958B3F21F40E949D
:103CD000051E819504C08C3F29F40E94051E809327
:103CE000ED010895843F21F48091E901816017C0BE
:103CF000853F21F48091E901826011C0863F21F463
:103D00008091E90184600BC0873F21F48091E90133
:103D1000886005C0883F31F48091E901806180931B
:103D2000E90108958D3F21F48091E70181600BC086
:103D30008E3F21F48091E701826005C08F3F29F416
:103D40008091E70184608093E7010895803F39F412
:103D50008091EB0187FF6CC01092EB0169C0813F3D
:103D600029F48091EB011816BCF362C09091EA012E
:103D7000823F29F497FF5CC01092EA0159C0833F4B
:103D800019F41916CCF354C0893F41F48091EC0129
:103D900018160CF04DC01092EC014AC08A3F29F46D
:103DA0008091EC0187FF44C0F6CF8B3F39F48091BE
:103DB000ED0187FF3DC01092ED013AC08C3F29F420
:103DC0008091ED011816BCF333C0843F21F480913B
:103DD000E9018E7F17C0853F21F48091E9018D7F35
:103DE00011C0863F21F48091E9018B7F0BC0873F92
:103DF00021F48091E901877F05C0883F31F48091EB
:103E0000E9018F7E8093E90113C08D3F21F48091F9
:103E1000E7018E7F0BC08E3F21F48091E7018D7FFB
:103E200005C08F3F29F48091E7018B7F8093E701E4
:103E30008091EA0181110EC08091EB0181110AC0CD
:103E40008091EC01811106C08091ED01811102C0C9
:103E50001092E801089589EE91E00E944F110E94AE
:103E6000EB1C9093E6018093E50108951F93CF9397
:103E7000DF938091E5019091E6010E94F71CAC016F
:103E80009091E801992321F02091140130E006C0BF
:103E9000209115018AE0289F9001112442175307B1
:103EA00008F486C08091EA01C091EB01D091EC0149
:103EB0001091ED01811107C0C11176C0D11174C0FC
:103EC000111172C075C09F3F19F09F5F9093E80178
:103ED000181624F40E94BC1D8093EA018091EA0127
:103EE00087FF05C00E94BC1D81958093EA011C16C6
:103EF00024F40E94BC1D8093EB018091EB0187FFAD
:103F000005C00E94BC1D81958093EB016091EA0180
:103F1000662339F1C091EB01CC2319F1772767FDB6
:103F20007095872F972F0E94B62223E333E343E354
:103F30005FE30E941A230E947E226093EA016C2FA5
:103F4000772767FD7095872F972F0E94B62223E36E
:103F500033E343E35FE30E941A230E947E226093CF
:103F6000EB011D1624F40E94051E8093EC01809144
:103F7000EC0187FF05C00E94051E81958093EC012E
:103F8000111624F40E94051E8093ED018091ED012D
:103F900087FF05C00E94051E81958093ED01DF918A
:103FA000CF911F910C942B1F9F3F09F08ECF96CF7E
:103FB000DF91CF911F910895E9EEF1E085E0DF01F7
:103FC0001D928A95E9F71092E8011092E701089591
:103FD000833081F128F4813059F08230D1F0089596
:103FE000853009F449C0B8F1863009F456C0089507
:103FF00080911501262F30E0280F311D2F3F31050C
:1040000024F4680F6093150108958FEF80931501D4
:10401000089580911401262F30E0280F311D2F3F85
:10402000310524F4680F6093140108958FEF809395
:104030001401089580911301262F30E0280F311DBF
:104040002F3F310524F4680F6093130108958FEF1B
:1040500080931301089580911201262F30E0280FDC
:10406000311D2F3F310524F4680F6093120108952C
:104070008FEF80931201089580911101262F30E077
:10408000280F311D2F3F310524F4680F6093110173
:1040900008958FEF80931101089580911001262FCC
:1040A00030E0280F311D2F3F310524F4680F609355
:1040B000100108958FEF809310010895833011F15E
:1040C00028F4813049F0823091F00895853081F1F3
:1040D00020F18630C1F1089580911501681720F410
:1040E000861B809315010895109215010895809103
:1040F0001401681720F4861B809314010895109210
:104100001401089580911301681720F4861B809391
:1041100013010895109213010895809112016817F8
:1041200020F4861B809312010895109212010895C5
:1041300080911101681720F4861B80931101089566
:1041400010921101089580911001681720F4861BC8
:104150008093100108951092100108950F931F93FA
:104160008D3109F471C008F045C0803109F485C073
:1041700008F5873009F46FC068F4863009F0ADC0E7
:104180008091DF01817F8E7F8093DF0181E08093CA
:10419000EF01A4C08B3009F49EC08E3009F09DC0A1
:1041A0008091DF0182FB222720F991E0922790FB8A
:1041B00082F96CC0863109F48EC060F4813109F057
:1041C0008CC00E94D11590910D0181E089278093C8
:1041D0000D0181C0893109F47EC08B3109F07DC0A9
:1041E0008091DF0181FB222720F991E0922790FB4B
:1041F00081F94CC0853309F466C048F4873209F46C
:1042000062C008F44FC0893209F45DC066C08334CF
:1042100038F48A3308F044C0883309F45CC05DC0C8
:10422000833409F450C0883409F057C00E94D11576
:104230000FEF13ED20E3015010402040E1F700C0E4
:1042400000000E94461D47C00E9438220E9438117B
:104250000E94320A40C09091DF01892F80958170C1
:1042600080FB90F929F0966098609093DF0136C04A
:10427000997F977F9093DF012EC08091DF0183FBB0
:10428000222720F991E0922790FB83F98093DF01A8
:10429000992309F18091DF0181608093DF011BC0C8
:1042A000895301C08D5141E050E060E070E08A0127
:1042B0009B0104C0000F111F221F331F8A95D2F7E4
:1042C000C901B80104C061E070E080E090E00E94A4
:1042D00091190E94D11581E001C080E01F910F91DA
:1042E000089580E0089580E008958E518A3030F47A
:1042F000E82FF0E0E65DFE4F8081089580E00895AC
:10430000CF93C82F8091EF01813079F018F082307F
:10431000E9F186C0E0910E01F0910F0180818131B9
:1043200069F0823209F07EC009C0E0910E01F0917F
:104330000F018081813111F0823261F48C2F0E9453
:104340007121811104C08C2F0E94AE201DC081E01C
:1043500090E01AC08C2F0E947321811114C0C431C7
:1043600079F048F4CB3079F0C03109F05FC082E0D9
:104370008093EF0108C0C93219F0C83321F056C04C
:104380001092EF0153C081E0817052C0C93281F1B7
:1043900010F5C43169F1A8F4C73009F045C08AE0CE
:1043A0008093150194E19093140193E0909313018D
:1043B0008093120188E08093110188E280931001BC
:1043C00033C082EE8C0F863078F58C2F0E947521D9
:1043D0008093EE0129C0CE34E9F020F4CB3421F5EE
:1043E0006AE013C0C13579F0C235F1F461E00DC067
:1043F0008091EE01882319F01092EE0115C081E042
:104400008093EF0115C061E006C08091EE010E942B
:10441000E81F0AC06AE08091EE010E945E2004C09D
:104420001092EF0180E004C081E002C080E0ACCFD8
:10443000CF910895E1E8F0E08081886080838081F9
:10444000816080838FB7F89493E09093890090ED1A
:10445000909388008FBF0895EFE6F0E0808182603E
:1044600080830895EFE6F0E080818D7F808308955A
:10447000EFE6F0E0908182E08927808308951F9223
:104480000F920FB60F9211242F933F934F935F9388
:104490006F937F938F939F93AF93BF93EF93FF930C
:1044A0008091F0019091F10101969093F101809338
:1044B000F001811103C082E00E94320AE091F10113
:1044C000E695E695F0E0E952FA4FE4918091F0012B
:1044D0008E1303C080E00E94320AFF91EF91BF91DA
:1044E000AF919F918F917F916F915F914F913F918C
:1044F0002F910F900FBE0F901F9018950E9485224C
:104500006894B1110C94142308950E94F92288F044
:104510009F5798F0B92F9927B751B0F0E1F0660F87
:10452000771F881F991F1AF0BA95C9F714C0B130C8
:1045300091F00E941323B1E008950C941323672F88
:10454000782F8827B85F39F0B93FCCF386957795F7
:104550006795B395D9F73EF49095809570956195E0
:104560007F4F8F4F9F4F0895E89409C097FB3EF40B
:1045700090958095709561957F4F8F4F9F4F9923B0
:10458000A9F0F92F96E9BB279395F695879577952E
:104590006795B795F111F8CFFAF4BB0F11F460FFEE
:1045A0001BC06F5F7F4F8F4F9F4F16C0882311F046
:1045B00096E911C0772321F09EE8872F762F05C05A
:1045C000662371F096E8862F70E060E02AF09A95F5
:1045D000660F771F881FDAF7880F9695879597F9EA
:1045E000089557FD9058440F551F59F05F3F71F0E3
:1045F0004795880F97FB991F61F09F3F79F087954A
:104600000895121613061406551FF2CF4695F1DFD2
:1046100008C0161617061806991FF1CF8695710562
:10462000610508940895E894BB2766277727CB0196
:1046300097F908950E942D230C949E230E949023A5
:1046400038F00E94972320F0952311F00C948723D3
:104650000C948D2311240C9414230E94F12270F3E6
:10466000959FC1F3950F50E0551F629FF001729F17
:10467000BB27F00DB11D639FAA27F00DB11DAA1F26
:10468000649F6627B00DA11D661F829F2227B00D73
:10469000A11D621F739FB00DA11D621F839FA00DFE
:1046A000611D221F749F3327A00D611D231F849F4E
:1046B000600D211D822F762F6A2F11249F575040A5
:1046C0009AF0F1F088234AF0EE0FFF1FBB1F661F20
:1046D000771F881F91505040A9F79E3F510580F0E9
:1046E0000C9487230C9414235F3FE4F3983ED4F397
:1046F000869577956795B795F795E7959F5FC1F78D
:10470000FE2B880F911D9695879597F9089597F937
:104710009F6780E870E060E008959FEF80EC089567
:1047200000240A9416161706180609060895002490
:104730000A9412161306140605060895092E03940A
:10474000000C11F4882352F0BB0F40F4BF2B11F47E
:1047500060FF04C06F5F7F4F8F4F9F4F089597FB9F
:10476000072E16F4009407D077FD09D00E94C923C4
:1047700007FC05D03EF4909581959F4F0895709564
:1047800061957F4F0895EE0FFF1F0590F491E02D86
:104790000994AA1BBB1B51E107C0AA1FBB1FA61788
:1047A000B70710F0A61BB70B881F991F5A95A9F7DA
:1047B00080959095BC01CD010895F999FECF92BDE9
:1047C00081BDF89A992780B50895A8E1B0E042E04C
:1047D00050E00C940424262FF999FECF92BD81BDA0
:1047E000F89A019700B4021631F020BD0FB6F89484
:1047F000FA9AF99A0FBE08950196272F0E94EC238A
:104800000C94EB23DC01CB01FC01F999FECF06C02F
:10481000F2BDE1BDF89A319600B40D92415050407E
:08482000B8F70895F894FFCFEA
:104828000220340AC20A9F0A6B0A370A0101CC0126
:1048380028080A03140A404D363997054A05140515
:10484800DB046E048704A004B9040102030405060E
:044858000708090044
:00000001FF
